:020000040800F2
:10000000F007002061010008071700080517000825
:1000100000000000000000000000000000000000E0
:100020000000000000000000000000000B170008A6
:100030000000000000000000091700080D1700086C
:1000400073010008730100087301000873010008C0
:1000500073010008730100087301000873010008B0
:1000600073010008730100087301000873010008A0
:100070007301000873010008730100087301000890
:1000800073010008730100080000000073010008FC
:100090007301000873010008730100087301000870
:1000A0007301000873010008730100087301000860
:1000B00073010008000000007301000800F002F85E
:1000C00000F03EF80CA030C8083824182D18671E20
:1000D000A246AB4654465D46AC4201D100F030F832
:1000E0007E460F3EB6460FCC0126334200D0FB1AA7
:1000F0003343A246AB461847B01F0000D01F000094
:10010000103A02D378C878C1FAD8520701D330C860
:1001100030C101D504680C60704700000023002442
:1001200000250026103A01D378C1FBD8520700D32E
:1001300030C100D50B6070471FB51FBD10B510BD95
:1001400000F04DF81146FFF7F7FF01F01BFD00F03E
:1001500065F803B4FFF7F2FF03BC00F06BF8000092
:100160000748804707480047FEE7FEE7FEE7FEE74F
:10017000FEE7FEE704480549054A064B70470000C4
:1001800015170008BD000008F0010020F00700204E
:10019000F0030020F003002001E004C0091F04293F
:1001A000FBD28B0701D50280801CC90700D00270EA
:1001B000704700290BD0C30702D00270401C491EB3
:1001C000022904D3830702D50280801C891EE3E73D
:1001D0000022EEE70022DFE7704770477047754660
:1001E00000F024F8AE46050069465346C008C0003A
:1001F000854618B020B5FFF7BDFF60BCB6460026A7
:100200000027C0C5C0C5C0C5C0C5C0C5C0C5C0C524
:10021000C0C5403D490849008D46704710B50446A9
:10022000C046C0462046FFF794FF10BD0048704707
:100230001000002001491820ABBEFEE72600020096
:1002400070470000F0B583B0002302933422825C33
:10025000012A02D1022003B0F0BD019307463437D2
:100260000668B268520716D400970D684B680124DF
:100270002746AF403E4A934214D1B06AB843B062B9
:10028000284610380228019E3046009F5BD8112D69
:100290001AD03C4819E0816B20220A438263012076
:1002A000019E50E0B26A3A43B262C06A421E072A17
:1002B0004CD2284610380228019E3046009F42D872
:1002C000112D0DD020060CE02D48102D00D12E4808
:1002D00028490A6802400A6030463E7003B0F0BD0B
:1002E000A005102D00D1E00522490A6802430A60EA
:1002F000102D304627D120480068204901F0BCFD70
:100300000A21414302910298002830461BD00298EE
:10031000401E02900298002811D00298401E0290C0
:10032000029800280BD00298401E029002980028E4
:1003300005D00298401E029002980028E7D130466E
:100340003E7003B0F0BD3E7003B0F0BD2207904296
:10035000AFD072690720024089689142A9D07269C2
:10036000824372610140706908437061A1E7C04631
:1003700001100000082701400800002040420F0043
:10038000FFFFBFFFFFFFFFFEFFFF7FFFF0B581B064
:100390000125002862D0044606462436806B0028DA
:1003A00003D0A06BC00609D554E000203074E06390
:1003B000204600F097F8A06BC0064BD420688168F7
:1003C000490747D481214900A26B8A43911CA1634C
:1003D000826803210A40012A05D10268D2070ED1A2
:1003E000C26812040BD4C26818239A43A36813434B
:1003F000C360890702698A43616811430161C1686A
:10040000364A0A40C260A16A491E4A1E9141090348
:10041000227E9203637EDB031343A27E55031D43BA
:10042000E36827692B430B43B91E4D424D41AD0094
:100430001D43317849002943E37E012B14D1002A62
:100440000FD0A26B20231343A363E26B012313435A
:10045000E36309E0A06B10210143A163284601B0CA
:10046000F0BD012212041143E269FF23C2339A4214
:1004700002D00A43216A1143C2680A43C260E26A99
:10048000531E072B24D243690725AB4343612A40FF
:10049000436913434361C068114A02408A420AD14A
:1004A0000025E563A06B0121014302208143A16384
:1004B000284601B0F0BDA06B10210143022081430A
:1004C000A163E06B01252843E063284601B0F0BD3D
:1004D00001231B079A42D6D0DDE7C0461902FEFF72
:1004E000E7FF3F8310B586B00021059104910068B5
:1004F000104A904201D006B010BD3C48426801232A
:1005000001935C0222434260426822400092009ABA
:100510005A0403681343036000681040009003917D
:10052000032002900920C006009901A900F070F88C
:1005300006B010BD00240140B0B54379012B01D1B4
:100540000220B0BD022303713E2393400468256856
:100550009D430B684968194391402943216000215C
:100560004171012202710846B0BD10B500280FD0BC
:1005700004460079002804D100206071204600F074
:1005800009F802202071002020610121217110BD95
:10059000012010BD10B586B00021059104910068BE
:1005A000114A904201D006B010BD01204207F84B1D
:1005B0009C6814439C609C6814400094009A40041A
:1005C0001A6802431A601A680240009203910320DD
:1005D0000290102001900920C006009901A900F0A6
:1005E00017F806B010BDC046007400401410024059
:1005F000B0B5044600F004F90546601C02D0EA4894
:100600000078041900F0FCF8401BA042FAD3B0BDFA
:10061000F0B58EB007466E48874201D0052000E055
:100620000320009008680C90002800D1CEE0012340
:10063000002403930B940A940791099711E00C9AF4
:100640001043644A106008680C90D840241D5B1C5D
:100650000B9A921C0B920A9A521C0A92002800D103
:10066000B4E05A1E0398089290400C9A02400C92F3
:10067000E9D005934B6803261A463240551E012DDA
:100680000694029318D803260B9FBE40099CA168CC
:10069000B143079DED68BD400D43A560D906C90F64
:1006A000089DA940656885430D436560069C0799D0
:1006B000F3430A9845000BE030460B9DA840C34326
:1006C000032A05D104930B983246099F029B22E02E
:1006D000099F2E46F86818408D680196B54005437D
:1006E000FD60022A049314D11C2020400F21814078
:1006F000089AD2089200BA18156A8D4307990E69B4
:1007000086402E4307991662099F4B6803221A40C0
:1007100000E0029B019882403868049D2840104305
:1007200038609803800F059B8DD0C24A1068012164
:1007300008431060106808400D900C2222400F25DD
:1007400095400320089E86430D98234C3059A843BA
:1007500035190926F606099CB442099F09D08D4C2B
:10076000A74207D01D498F420099069C03D1022160
:1007700001E00021069C91400143296015488068F2
:1007800007994D68EA0202D50C9A104301E00C9AD1
:100790009043104A9060D068AA0202D50C9A104388
:1007A00001E00C9A90430B4AD0605068AA0302D52E
:1007B0000C9A104301E00C9A9043064A506010686E
:1007C000EA0300D53BE70C9A90433AE70EB0F0BD40
:1007D000000C0048000401400800014000080048E7
:1007E00042690B4693430A401104C918816170475E
:1007F000002A02D018228150704728228150704769
:100800006A4800687047C046B0B502464120135C94
:100810000220202B19D1134640331C78012C14D010
:1008200024205870106802680124A2430260220349
:1008300005689543056002680A4302600168214328
:1008400001600020187020215970B0BDB0B502467B
:100850004120135C0220202B19D1134640331C7811
:10086000012C14D024205870106802680124A2437F
:1008700002600F22120205689543090229430160B4
:100880000168214301600020187020215970B0BD1B
:10089000F0B581B0002822D004460546403568787E
:1008A000002804D100202870204600F045F82420BC
:1008B00068702068026801218A4302600F221206D4
:1008C0006368934303618368194A13408360A36894
:1008D000E668012E06D1CE03334383600AE001208F
:1008E00001B0F0BD2127BF023B438360022E01D13E
:1008F000CB02436043680F4E1E434660C3681340FB
:10090000C360226963691343A26912021A43C26079
:10091000E269236A1343036002680A43026000200D
:100920006064202169702063A87001B0F0BDC046EA
:10093000FF7FFFFF00800002B0B586B0006813495A
:10094000884201D006B0B0BD114C20680125059544
:10095000A904084320602068084000900320049008
:100960000020039012200290C020019000980948B6
:1009700001A9FFF74DFE6805A1680143A160A168C8
:1009800001400091009806B0B0BDC0460054004040
:1009900014100240000400481B48007803490A680C
:1009A000101808607047C04600000020E8010020D1
:1009B00080B5C648016810220A430260032000F097
:1009C00005F800F023F8002080BDC04670B504464D
:1009D0007D20C0000C4E317801F04EFA0146C3482C
:1009E000006801F049FA00F0A5FB0125032C08D8A6
:1009F000002806D10025E84321462A4600F01CF8CD
:100A00007460284670BDC0460000002082B00948CE
:100A100001680122114301600168114001910199AF
:100A2000110742680A4342604068084000900098FD
:100A300002B0704718100240002805D40322034674
:100A400093430C4A9A1806E00F220240083A032307
:100A50009A43074BD2188007C00E8901C9B2814062
:100A6000FF23834010689843084310607047C046D6
:100A70001CED00E000E400E0F0B585B004468078AD
:100A8000C007414B4FD00120039001071A1F106887
:100A90000840029006D110680843106010680840B2
:100AA0000490049800920191384E3068C00513D428
:100AB00003980702306838433060FFF7A1FE05460F
:100AC0003068384208D1FFF79BFE401B6428F7D9F5
:100AD0000325284605B0F0BD032528022A4B1968D6
:100AE000014012D06268024091420ED00398000487
:100AF00019681A6802431A601A6882431A60084625
:100B0000234A10401860C80730D1186820490840AF
:100B10006168014319600298002804D1009A1068A6
:100B20000199884310602068C10705D181060BD464
:100B300000254005CDD510E0196903229143A26834
:100B40000A431A618106F3D5196910229143E268BC
:100B50000A431A6100254005BBD518694021884326
:100B6000216901431961284605B0F0BDFFF748FE31
:100B70000646574F044B18688007C6D4FFF740FE5F
:100B8000801BB842F6D9A4E7201002400070004054
:100B9000FFFCFFFFF0B581B000284FD004464B4A60
:100BA0001368012003408B4208D213680126B34327
:100BB0000B431360126832408A4240D10091216891
:100BC0008A075A4B11D54A0707D507221202574BFD
:100BD0001B681343554A1360544B1A68F0239A4319
:100BE000A3681343514A1360504BC9072AD13749B0
:100BF000086801263040009A904205D90868B04341
:100C000008600868C0071AD12078400706D5072079
:100C1000000219688143E0680843186019680C22D3
:100C20000A404348082A18D18A02120F414B9C5CA3
:100C30003E4B9A6AC90332D4404837E00126304619
:100C400001B0F0BD61681A1F022908D001290BD13B
:100C5000126892030646F2D50AE0044627E01268BD
:100C600092010646EBD503E0126892070646E6D5E8
:100C700018680326B04308431860FFF7C1FD074614
:100C8000134D2A4B18680C21014060688000814296
:100C9000ADD0FFF7B5FDC01BA842F2D9CFE70F21B9
:100CA0000A402549895C01F0E7F8204B4443186865
:100CB0000006000F0749085CC4400C48046003208C
:100CC000FFF784FE0026304601B0F0BD0020024050
:100CD000881300006E200008044800681349096862
:100CE0004905490F024A515CC8407047080000207E
:100CF0007E20000810B50D490A680C2313400C48EB
:100D0000082B09D193021B0F0A4CE45C896AD203B9
:100D100003D40A484443204610BD0F221140064A1E
:100D2000515C01F0A9F84443204610BD0410024074
:100D300000127A00862000089620000800093D0075
:100D4000F0B587B004460120002C00D1EAE1049000
:100D50002078C007F44E059426D071680C2001401D
:100D600004291AD071680140082902D17068C003B3
:100D700013D4616801204704002900D184E10529CA
:100D800000D198E1012900D199E1010432688A4338
:100D9000326081043068884394E13068800303D571
:100DA0006068002800D1BDE0207880071AD57068FF
:100DB0000007800F07D070680C210140082975D109
:100DC0007068C00372D430688007059C03D5E06862
:100DD000012800D0A6E03068F82188432169C900C5
:100DE00001433160059C2078000724D42078400717
:100DF00036D42078C00600D4B4E005984069411D7F
:100E000000D1A3E0012800D0F4E0706B042101437D
:100E10007163706B012101437163FFF7F1FC0546BB
:100E2000706B800700D595E0FFF7EAFC411B0320BB
:100E30000229F5D976E1706AE169002960D00121C3
:100E400008437062FFF7DCFC0546706A8007CDD46A
:100E5000FFF7D6FC401B0228F7D9032007B0F0BDEE
:100E6000012003900107F0690840029006D1F06963
:100E70000843F061F0690840069006980191AB4F75
:100E80003868C00528D403980402386820433860C5
:100E9000FFF7B6FC0546386820421DD1FFF7B0FCCD
:100EA000401B6428F7D9032007B0F0BD3068059CCB
:100EB000E168002939D0012108433060FFF7A0FC28
:100EC00005463068800786D4FFF79AFC401B02284D
:100ED000F7D9032007B0F0BD05988068944F00282B
:100EE00000D19CE0052800D1AEE0012800D1AFE0A0
:100EF000306A039988433062306A04218843AAE04B
:100F0000012188437062FFF77BFC0546706A800709
:100F100000D46BE7FFF774FC401B0228F6D90320CE
:100F200007B0F0BD049807B0F0BD012188433060E0
:100F3000FFF766FC05463068800700D452E7FFF7EC
:100F40005FFC411B03200229F5D9EBE0706B042103
:100F500088437063706BF821884305998969C900DB
:100F6000014371630598046A002C1ED070680C213F
:100F7000014008291CD1012C049800D1D2E00120A5
:100F8000030471680B40F26A059D6C6AA34200D0AD
:100F9000C8E00F231A40EC6AA24200D0C2E09A04D3
:100FA0001140AA6A914200D0BCE0002007B0F0BD19
:100FB0000120020631680492914331604706FFF731
:100FC0001FFC0546022C0BD1049C3068384200D12E
:100FD00088E0FFF715FC411B03200229F5D9A1E0A9
:100FE00030683842E1D0FFF70BFC411B0320022997
:100FF000F6D997E0706B042101437163706B012196
:1010000088437063FFF7FCFB0546706B8007A9D52A
:10101000FFF7F6FB411B03200229F6D982E0306A74
:10102000039988433062306A042188433062FFF7B5
:10103000E7FB0546306A80071CD5FFF7E1FB411B43
:101040000320B942F6D96DE0306A042101433162D0
:10105000306A039908433062FFF7D2FB0546306AD5
:10106000800707D4FFF7CCFB401BB842F7D9032019
:1010700007B0F0BD02980028059C00D0B9E6F069E1
:1010800001998843F061B4E6010432688A43326012
:101090008004316881433160FFF7B2FB0546059C4F
:1010A0003068384200D17FE6FFF7AAFB411B0320DE
:1010B0006429F5D936E0810432680A4332600104BC
:1010C000306808433060FFF79BFB054630683842C4
:1010D00000D069E6FFF794FB401B6428F6D9032093
:1010E00007B0F0BDF06A0F218843059AD16A014329
:1010F000F1623D20000471688143906A0843516A9F
:1011000001437160306820433060FFF779FB04468B
:101110003068384200D048E7FFF772FB011B03201C
:101120000229F5D907B0F0BD001002400070004060
:1011300088130000401E010E01D0012070470749AE
:10114000074A5060074803680B4003218907591874
:10115000016000209060072111607047FFFFFF00D1
:1011600010E000E020ED00E070B53C22825C012A36
:1011700001D1022070BD03463C3300221A703F2388
:101180001B02CC689C430F239D028E68AE4326430E
:10119000DB024C689C43344307231B030D689D43CB
:1011A000254303235B030C699C432C434B69234376
:1011B0000124A403A343C96919430068416410468C
:1011C00070BD000010B53C22825C012A01D10220D2
:1011D00010BD02463C3202235370006843687024FD
:1011E000A3430C681C4383684460F84CA04207DCAE
:1011F0000124A407A04209D0F34CA04206D00AE083
:10120000F64CA04202D0EF4CA04204D18024A3436C
:10121000496819438160002010700121517010BD90
:1012200080B586B00068E749884201D006B080BD2D
:10123000012040040B490A6802430A600968014022
:101240000091022005900021049103910290032057
:10125000C00101900920C006009901A9FFF7D8F943
:1012600006B080BD14100240F0B583B03C23C35CCF
:10127000012B02D1022003B0F0BD07463C37022308
:10128000DA41032A39D802977A44127952009744F6
:1012900001394C610268146A012084431462D14C04
:1012A00014190A25EC41156A9D438E682E43536834
:1012B00000930B6801939569072C00D9E9E0034678
:1012C000A340E1273B4200D1E7E00C239E43CB68DB
:1012D0000427BB433343029F072C00D9E2E0A04020
:1012E000E124204200D1DDE003200002009E86437D
:1012F0004C69886934430443D5E0012000213970EA
:1013000003B0F0BD0268106A102398431062136A9C
:101310002020834388680001184356680D6894694B
:10132000C64B9A4250D0074655E00124230202687A
:10133000106A984310626002136A8343886800024F
:10134000184356680B680193D569BC4B9A426ED01E
:10135000074675E0012633030268106A984310625D
:10136000A04813180A20C341156A50688C680F689A
:101370000197D769072B00D9B1E0009434469C400F
:10138000E1231C4200D1ACE0B30398434B699B01BD
:101390000343009C10461C30536073231B029F4381
:1013A000019B1B023B43D3614B68136473039D4352
:1013B00023032B431362F302D4691C43D461B302A9
:1013C000D4699C43D4612FE0C0239843CB681F01AC
:1013D00040239F430743834810180A23D841072816
:1013E0000DD801238340E120034208D0032080026E
:1013F000864348698B69800030439E00064310464F
:101400001830566073231B029C432B0223439361C5
:101410004B68936317620123DC029569254395614C
:101420009B0294699C439461096909022FE003239C
:101430009B0298432C4BFF3BCF683F021F40074362
:10144000684810180A23D84107280CD88440E120A6
:10145000044208D003200003864348698B690001D9
:1014600030431E01064310461C30566073239D43D3
:10147000019B1D43D5614B68D3631762D369082470
:101480001C43D461D3690424A343D3610969029F37
:101490001DE03346072C05D821E73346029F072C71
:1014A00000D81CE7009C1046183054607324A543F4
:1014B000019C254395614C68546313629369082429
:1014C0001C43946193690424A343936109690268EE
:1014D0000A43026000200021397003B0F0BD0346CA
:1014E00058E7034655E7C046FFFBFFFF70B50028ED
:1014F00029D0044605463C356878002804D10020F0
:101500002870204600F070F80220687021680E688C
:1015100001208307994205D0484A914202D02A4AC5
:10152000914219D170229643A2683243274EB142AC
:1015300016DD274B994208DC404B994218D0274BC7
:10154000994215D03CE0012070BD224B99420FD04A
:10155000214B99420CD033E032461C4EB142E8DCBC
:10156000994205D0184B994202D01D4B994227D180
:1015700003231B029A432369134380229343A269E6
:101580001A430A60E268CA6262688A62154A8A1867
:101590000A23DA41072A06D803469340E122134280
:1015A00001D062690A634861A872A870E870287166
:1015B0006871A871E871287268726870002070BD47
:1015C0001346DAE7002C014000040040FF2B0140E5
:1015D000FF430140004801400044014000400140F9
:1015E0000020004000D4FEBF80B586B000681349DB
:1015F000884201D006B080BD0120C102404A536834
:101600000B43536053680B400193019941041368E5
:101610000B43136012680A400092022105910022D8
:10162000049203920291400201900920C0060099A1
:1016300001A9FEF7EDFF06B080BDC046002C0140B9
:10164000B0B500282FD00446C06F002805D17820FF
:1016500000212154204600F029F82420E06720686A
:1016600001680125A9430160204600F021F9012805
:1016700017D0606A002802D0204600F04CF80920FC
:10168000C00221684A6882434A6088682A229043DF
:1016900088600868012202430A60204600F0A4F82E
:1016A00005462846B0BD0120B0BD000080B586B01B
:1016B0000068C249884201D006B080BD10488168E8
:1016C000012205925204114381608168114000910A
:1016D00000990168114301600068104000900320E8
:1016E000049000200390022002900C200190092019
:1016F000C006009901A9FEF78BFF06B080BDC04669
:1017000014100240FEE7FEE77047704780B5FFF710
:1017100043F980BD7047B0B5416ACA070CD18A074A
:1017200014D44A071CD40A0724D4CA062CD48A0627
:1017300034D44A063CD44CE00122520403685C686D
:101740009443826A22435A608A07EAD5012212042E
:1017500003685C689443C26A22435A604A07E2D530
:101760000122920403685C689443026B22435A602E
:101770000A07DAD50122D20303685C689443426BFE
:1017800022435A60CA06D2D50122120303689C681C
:101790009443826B22439A608A06CAD5012252037F
:1017A00003689C689443C26B22439A604A0610D532
:1017B00001221305026854689C43056C2C43546055
:1017C0009D4206D103235B0554689C43436C23432D
:1017D0005360090607D50121C904026853688B4389
:1017E000806C18435060B0BDF0B583B004468420CF
:1017F0000026265027467837FFF702F80346206870
:10180000016809071FD52948009001200290410571
:10181000002220461D4600F0E3F8002811D0EFF327
:101820001080029981F3108821680A6880239A4306
:101830000A6080F310882020E06703203E7003B028
:10184000F0BD20682B460068400725D5174800905A
:101850000125A9050022204600F0C2F800281BD06F
:10186000EFF3108085F3108809214901226813687D
:101870008B43136080F31088EFF3108085F310889A
:1018800021688A68AA438A6080F310882020B860A3
:1018900003203E7003B0F0BD2020E067B8602666EC
:1018A000666630463E7003B0F0BDC046FFFFFF01E4
:1018B000B0B50446006801683F4A0A40A168236940
:1018C0000B4365691D43E1690D4315430560032220
:1018D000120343689343E2681A434260A269236A91
:1018E00013430B221202856895431D438560334ADA
:1018F000904209D0324A904208D1324800688007AD
:10190000000F31A2135802E0002300E0102301254C
:10191000EA03314891420FD1082B48D87B441B7908
:101920005B009F4404442044194444441F00FFF7D3
:10193000D3F9002817D113E0082B38D87B441B7942
:101940005B009F4404342734203434342600FFF7EE
:10195000C3F900281ED11AE0FFF7CCF9002802D104
:10196000002524E01046400061684A08101800F085
:1019700083FA0246103A19498A4218D201400007F8
:10198000400F084310E0FFF7B5F9002802D1002509
:101990000DE0104661684A08101800F06DFA014623
:1019A00010390E4A914202D22168C86000250020F9
:1019B000A066E0662846B0BDF369FFFF0044004022
:1019C0000038014030100240000000000400000018
:1019D000080000000200000000127A00F0FF000082
:1019E000F0B587B015460F460668F1693940C91B46
:1019F0004A424A410021AA4225D106930C9C002C60
:101A000024D00B46611C26D1F1693940C91B4A42DA
:101A10004A41AA4214D1F1693940C91B4A424A419C
:101A2000AA420DD1F1693940C91B4A424A41AA4232
:101A300006D1F1693940C91B4A424A41AA42E3D062
:101A4000184607B0F0BD084607B0F0BDFEF7D8FE57
:101A5000032007B0F0BD02930146783103910121C4
:101A60000191C9020491059006E0C9693940CA1B79
:101A700051425141A9424BD1FEF7C2FE0699411A8B
:101A80000323A142DCD8059801680A685207ECD507
:101A9000CA6912073FD4CA692646049C22423446CA
:101AA000E3D01F4604980862EFF31082012181F30E
:101AB000108809235B010598046825689D4325600B
:101AC00082F31088EFF3108281F310880598036881
:101AD0009C688C439C60059882F31088026E012AF2
:101AE0000BD1EFF3108281F3108801680B6810248A
:101AF000A3430B60059882F310882021039B996013
:101B00000022026682661A70D960384607B0F0BDBE
:101B1000029807B0F0BD08250D62EFF3108101981F
:101B200080F3108809225201059B1B681C689443AE
:101B30001C6081F31088EFF3108180F31088059A00
:101B40001268936883439360059B81F31088196E34
:101B500001290CD1EFF31081012282F310881A6859
:101B600013681024A3431360059B81F31088202180
:101B7000039A91600021196699661170D56007B0CB
:101B8000F0BD00009EB0FEF713FF0AAC201D2C2113
:101B9000FEF720FB01270F970D9712260A960025C6
:101BA0001295102010900E901B951A951995189566
:101BB0002046FFF7C5F8002803D0EFF3108072B677
:101BC000FEE70995089507950720069006A829467F
:101BD000FEF7E0FF002803D0EFF3108072B6FEE7B7
:101BE0001A952020179017A8FEF746FF002803D06B
:101BF000EFF3108072B6FEE70E950D9578049149CB
:101C00000A6802430A600A68024017921798B804EB
:101C10000A6802430A6009680140179117988A48C8
:101C2000392102912A46FEF7E3FD0920C0060590FE
:101C300003240494A10203912A46FEF7D9FD0C95D2
:101C40000B940A960AAC059E30462146FEF7E0FC4E
:101C50000C9504980B90602001900A903046214624
:101C6000FEF7D6FC0D950C950B9702980A90764ED0
:101C700030462146FEF7CCFC0C9504980B900220D0
:101C80000A9030462146FEF7C3FC0D950C950B9744
:101C900003980A9005982146FEF7BAFC38206B4E4F
:101CA0003554F7637563FF20C2300421684A7261BE
:101CB000B561F56135627762B162F56230633446D1
:101CC00014342046FEF762FB002803D0EFF31080A7
:101CD00072B6FEE70A9538070C9038030B900AA9F4
:101CE0002046FEF7AFFA002803D0EFF3108072B65B
:101CF000FEE7584830600B950A953046FEF735FCF4
:101D0000002803D0EFF3108072B6FEE74F480AA90F
:101D100000242246FEF710FC002803D0EFF31080C9
:101D200072B6FEE74C484D494D4A0260021D92C210
:101D3000046144618461C4610462FEF7A9FD002866
:101D400003D0EFF3108072B6FEE743480021FEF7A0
:101D50005BFD002803D0EFF3108072B6FEE73E482B
:101D600000252946FEF772FD002803D0EFF310800E
:101D700072B6FEE73B483C493C4A24C005604160DE
:101D80008560C56005610795069510950838FFF7D1
:101D9000ADFB002803D0EFF3108072B6FEE73148A8
:101DA00006A9FFF70FFA002803D0EFF3108072B6F0
:101DB000FEE718950198179019951A951B951C9593
:101DC0001D95284817A92A46FFF74EFA002803D088
:101DD000EFF3108072B6FEE70E950D950C950B95FE
:101DE0000A95119578030F901E480AA9FFF7BCF9D0
:101DF000002803D0EFF3108072B6FEE71948FFF712
:101E00000FFA1B480C214B2252021A4B036042600E
:101E10008560C560056141618561C5610562456296
:101E2000FFF70EFC002803D0EFF3108072B6FEE738
:101E3000054C01212046FEF7D3FC7D20C000FEF7B3
:101E4000D7FBF6E7141002400004004870000020A1
:101E50000024014000740040C40000200E0900204E
:101E60000054004018010020FFFF0000002C01403A
:101E7000600100200044004043088B421AD3002236
:101E800003098B4279D3030A8B425ED3030B8B4247
:101E900042D3030C8B4227D30902FF2212BA030C50
:101EA0008B4202D31212090203D0030B8B4233D3AD
:101EB0001AE0D3E0411A8041401C704703460B43AF
:101EC00071D443088B42F5D3002203098B4254D3CB
:101ED000030A8B4239D3030B8B421DD3030C8B4275
:101EE00002D394466EE0090AC30B8B4201D3CB03A5
:101EF000C01A5241830B8B4201D38B03C01A52414B
:101F0000430B8B4201D34B03C01A5241030B8B424C
:101F100001D30B03C01A5241C30A8B4201D3CB0237
:101F2000C01A5241830A8B4201D38B02C01A52411C
:101F3000430A8B4201D34B02C01A5241030A8B421F
:101F400001D30B02C01A5241CDD2C3098B4201D337
:101F5000CB01C01A524183098B4201D38B01C01AB5
:101F6000524143098B4201D34B01C01A524103092C
:101F70008B4201D30B01C01A5241C3088B4201D3DB
:101F8000CB00C01A524183088B4201D38B00C01A88
:101F9000524143088B4201D34B00C01A5241411AAF
:101FA000524110007047CA0F00D04942031000D3BD
:101FB0004042534000229C4603098B422DD3030A22
:101FC0008B4212D38901FC2212BA030A8B420CD332
:101FD000890192118B4208D3890192118B4204D35B
:101FE000890137D0921100E08909C3098B4201D3DE
:101FF000CB01C01A524183098B4201D38B01C01A15
:10200000524143098B4201D34B01C01A524103098B
:102010008B4201D30B01C01A5241C3088B4201D33A
:10202000CB00C01A524183088B4201D38B00C01AE7
:102030005241D9D243088B4201D34B00C01A5241BE
:10204000411A00D201465241104663465B1000D34C
:102050004042704763465B1000D3404201B5002107
:10206000004201D0C9430846C046C04602BD000038
:102070000000000000000102030406070809000038
:1020800000000102030402030405060708090A0B05
:102090000C0D0E0F10100102030405060708090AB3
:1020A0000B0C0D0E0F100000C820000800000020CF
:1020B0001000000000010008D820000810000020D7
:1020C000E00700001C0100080100000004000000FF
:0820D00000127A00000000007C
:04000005080000BD32
:00000001FF
